{
	"contracts/kipu-bank.sol": {
		"KipuBank": {
			"abi": [
				{
					"inputs": [
						{
							"internalType": "uint256",
							"name": "_montoBankCap",
							"type": "uint256"
						}
					],
					"stateMutability": "nonpayable",
					"type": "constructor"
				},
				{
					"inputs": [
						{
							"internalType": "uint256",
							"name": "",
							"type": "uint256"
						}
					],
					"name": "KipuBank_DepositoInvalido",
					"type": "error"
				},
				{
					"inputs": [
						{
							"internalType": "uint256",
							"name": "",
							"type": "uint256"
						}
					],
					"name": "KipuBank_MontoDeDepositoExcedido",
					"type": "error"
				},
				{
					"inputs": [
						{
							"internalType": "uint256",
							"name": "",
							"type": "uint256"
						},
						{
							"internalType": "uint256",
							"name": "",
							"type": "uint256"
						}
					],
					"name": "KipuBank_MontoTransaccionExcedido",
					"type": "error"
				},
				{
					"anonymous": false,
					"inputs": [
						{
							"indexed": false,
							"internalType": "uint256",
							"name": "",
							"type": "uint256"
						}
					],
					"name": "KipuBank_DepositoRealizado",
					"type": "event"
				},
				{
					"anonymous": false,
					"inputs": [
						{
							"indexed": false,
							"internalType": "uint256",
							"name": "",
							"type": "uint256"
						}
					],
					"name": "KipuBank_RetiroRealizado",
					"type": "event"
				},
				{
					"stateMutability": "nonpayable",
					"type": "fallback"
				},
				{
					"inputs": [],
					"name": "depositar",
					"outputs": [],
					"stateMutability": "payable",
					"type": "function"
				},
				{
					"stateMutability": "payable",
					"type": "receive"
				}
			],
			"devdoc": {
				"kind": "dev",
				"methods": {},
				"version": 1
			},
			"evm": {
				"assembly": "    /* \"contracts/kipu-bank.sol\":162:1878  contract KipuBank{... */\n  mstore(0x40, 0xc0)\n    /* \"contracts/kipu-bank.sol\":343:347  1000 */\n  0x03e8\n    /* \"contracts/kipu-bank.sol\":298:347  uint256 private immutable i_maxTransaccion = 1000 */\n  0x80\n  swap1\n  dup2\n  mstore\n  pop\n    /* \"contracts/kipu-bank.sol\":1575:1703  constructor(uint256 _montoBankCap){... */\n  callvalue\n  dup1\n  iszero\n  tag_1\n  jumpi\n  revert(0x00, 0x00)\ntag_1:\n  pop\n  mload(0x40)\n  sub(codesize, bytecodeSize)\n  dup1\n  bytecodeSize\n  dup4\n  codecopy\n  dup2\n  dup2\n  add\n  0x40\n  mstore\n  dup2\n  add\n  swap1\n  tag_2\n  swap2\n  swap1\n  tag_3\n  jump\t// in\ntag_2:\n    /* \"contracts/kipu-bank.sol\":1631:1644  _montoBankCap */\n  dup1\n    /* \"contracts/kipu-bank.sol\":1619:1644  i_bankCap = _montoBankCap */\n  0xa0\n  dup2\n  dup2\n  mstore\n  pop\n  pop\n    /* \"contracts/kipu-bank.sol\":1671:1672  0 */\n  0x00\n    /* \"contracts/kipu-bank.sol\":1656:1668  nroDepositos */\n  0x01\n    /* \"contracts/kipu-bank.sol\":1656:1672  nroDepositos = 0 */\n  dup2\n  swap1\n  sstore\n  pop\n    /* \"contracts/kipu-bank.sol\":1695:1696  0 */\n  0x00\n    /* \"contracts/kipu-bank.sol\":1682:1692  nroRetiros */\n  0x02\n    /* \"contracts/kipu-bank.sol\":1682:1696  nroRetiros = 0 */\n  dup2\n  swap1\n  sstore\n  pop\n    /* \"contracts/kipu-bank.sol\":1575:1703  constructor(uint256 _montoBankCap){... */\n  pop\n    /* \"contracts/kipu-bank.sol\":162:1878  contract KipuBank{... */\n  jump(tag_6)\n    /* \"#utility.yul\":88:205   */\ntag_8:\n    /* \"#utility.yul\":197:198   */\n  0x00\n    /* \"#utility.yul\":194:195   */\n  0x00\n    /* \"#utility.yul\":187:199   */\n  revert\n    /* \"#utility.yul\":334:411   */\ntag_10:\n    /* \"#utility.yul\":371:378   */\n  0x00\n    /* \"#utility.yul\":400:405   */\n  dup2\n    /* \"#utility.yul\":389:405   */\n  swap1\n  pop\n    /* \"#utility.yul\":334:411   */\n  swap2\n  swap1\n  pop\n  jump\t// out\n    /* \"#utility.yul\":417:539   */\ntag_11:\n    /* \"#utility.yul\":490:514   */\n  tag_19\n    /* \"#utility.yul\":508:513   */\n  dup2\n    /* \"#utility.yul\":490:514   */\n  tag_10\n  jump\t// in\ntag_19:\n    /* \"#utility.yul\":483:488   */\n  dup2\n    /* \"#utility.yul\":480:515   */\n  eq\n    /* \"#utility.yul\":470:533   */\n  tag_20\n  jumpi\n    /* \"#utility.yul\":529:530   */\n  0x00\n    /* \"#utility.yul\":526:527   */\n  0x00\n    /* \"#utility.yul\":519:531   */\n  revert\n    /* \"#utility.yul\":470:533   */\ntag_20:\n    /* \"#utility.yul\":417:539   */\n  pop\n  jump\t// out\n    /* \"#utility.yul\":545:688   */\ntag_12:\n    /* \"#utility.yul\":602:607   */\n  0x00\n    /* \"#utility.yul\":633:639   */\n  dup2\n    /* \"#utility.yul\":627:640   */\n  mload\n    /* \"#utility.yul\":618:640   */\n  swap1\n  pop\n    /* \"#utility.yul\":649:682   */\n  tag_22\n    /* \"#utility.yul\":676:681   */\n  dup2\n    /* \"#utility.yul\":649:682   */\n  tag_11\n  jump\t// in\ntag_22:\n    /* \"#utility.yul\":545:688   */\n  swap3\n  swap2\n  pop\n  pop\n  jump\t// out\n    /* \"#utility.yul\":694:1045   */\ntag_3:\n    /* \"#utility.yul\":764:770   */\n  0x00\n    /* \"#utility.yul\":813:815   */\n  0x20\n    /* \"#utility.yul\":801:810   */\n  dup3\n    /* \"#utility.yul\":792:799   */\n  dup5\n    /* \"#utility.yul\":788:811   */\n  sub\n    /* \"#utility.yul\":784:816   */\n  slt\n    /* \"#utility.yul\":781:900   */\n  iszero\n  tag_24\n  jumpi\n    /* \"#utility.yul\":819:898   */\n  tag_25\n  tag_8\n  jump\t// in\ntag_25:\n    /* \"#utility.yul\":781:900   */\ntag_24:\n    /* \"#utility.yul\":939:940   */\n  0x00\n    /* \"#utility.yul\":964:1028   */\n  tag_26\n    /* \"#utility.yul\":1020:1027   */\n  dup5\n    /* \"#utility.yul\":1011:1017   */\n  dup3\n    /* \"#utility.yul\":1000:1009   */\n  dup6\n    /* \"#utility.yul\":996:1018   */\n  add\n    /* \"#utility.yul\":964:1028   */\n  tag_12\n  jump\t// in\ntag_26:\n    /* \"#utility.yul\":954:1028   */\n  swap2\n  pop\n    /* \"#utility.yul\":910:1038   */\n  pop\n    /* \"#utility.yul\":694:1045   */\n  swap3\n  swap2\n  pop\n  pop\n  jump\t// out\n    /* \"contracts/kipu-bank.sol\":162:1878  contract KipuBank{... */\ntag_6:\n  mload(0x80)\n  mload(0xa0)\n  codecopy(0x00, dataOffset(sub_0), dataSize(sub_0))\n  0x00\n  assignImmutable(\"0x1a192fabce13988b84994d4296e6cdc418d55e2f1d7f942188d4040b94fc57ac\")\n  0x00\n  assignImmutable(\"0xe4b1702d9298fee62dfeccc57d322a463ad55ca201256d01f62b45b2e1c21c10\")\n  return(0x00, dataSize(sub_0))\nstop\n\nsub_0: assembly {\n        /* \"contracts/kipu-bank.sol\":162:1878  contract KipuBank{... */\n      mstore(0x40, 0x80)\n      jumpi(tag_1, lt(calldatasize, 0x04))\n      shr(0xe0, calldataload(0x00))\n      dup1\n      0x3d922f90\n      eq\n      tag_3\n      jumpi\n      jump(tag_2)\n    tag_1:\n      jumpi(tag_2, calldatasize)\n      stop\n    tag_2:\n      callvalue\n      dup1\n      iszero\n      tag_6\n      jumpi\n      revert(0x00, 0x00)\n    tag_6:\n      stop\n        /* \"contracts/kipu-bank.sol\":1382:1549  function depositar()external payable validarDeposito(msg.value){... */\n    tag_3:\n      tag_9\n      tag_10\n      jump\t// in\n    tag_9:\n      stop\n    tag_10:\n        /* \"contracts/kipu-bank.sol\":1435:1444  msg.value */\n      callvalue\n        /* \"contracts/kipu-bank.sol\":1037:1052  uint256 balance */\n      0x00\n        /* \"contracts/kipu-bank.sol\":1055:1076  address(this).balance */\n      selfbalance\n        /* \"contracts/kipu-bank.sol\":1037:1076  uint256 balance = address(this).balance */\n      swap1\n      pop\n        /* \"contracts/kipu-bank.sol\":1099:1100  0 */\n      0x00\n        /* \"contracts/kipu-bank.sol\":1089:1095  _monto */\n      dup3\n        /* \"contracts/kipu-bank.sol\":1089:1100  _monto <= 0 */\n      gt\n        /* \"contracts/kipu-bank.sol\":1086:1142  if(_monto <= 0) revert KipuBank_DepositoInvalido(_monto) */\n      tag_12\n      jumpi\n        /* \"contracts/kipu-bank.sol\":1135:1141  _monto */\n      dup2\n        /* \"contracts/kipu-bank.sol\":1109:1142  KipuBank_DepositoInvalido(_monto) */\n      mload(0x40)\n      0xa5b1639100000000000000000000000000000000000000000000000000000000\n      dup2\n      mstore\n      0x04\n      add\n      tag_13\n      swap2\n      swap1\n      tag_14\n      jump\t// in\n    tag_13:\n      mload(0x40)\n      dup1\n      swap2\n      sub\n      swap1\n      revert\n        /* \"contracts/kipu-bank.sol\":1086:1142  if(_monto <= 0) revert KipuBank_DepositoInvalido(_monto) */\n    tag_12:\n        /* \"contracts/kipu-bank.sol\":1173:1182  i_bankCap */\n      immutable(\"0x1a192fabce13988b84994d4296e6cdc418d55e2f1d7f942188d4040b94fc57ac\")\n        /* \"contracts/kipu-bank.sol\":1163:1170  balance */\n      dup2\n        /* \"contracts/kipu-bank.sol\":1156:1162  _monto */\n      dup4\n        /* \"contracts/kipu-bank.sol\":1156:1170  _monto+balance */\n      tag_15\n      swap2\n      swap1\n      tag_16\n      jump\t// in\n    tag_15:\n        /* \"contracts/kipu-bank.sol\":1156:1182  _monto+balance > i_bankCap */\n      gt\n        /* \"contracts/kipu-bank.sol\":1153:1232  if(_monto+balance > i_bankCap) revert KipuBank_MontoDeDepositoExcedido(balance) */\n      iszero\n      tag_17\n      jumpi\n        /* \"contracts/kipu-bank.sol\":1224:1231  balance */\n      dup1\n        /* \"contracts/kipu-bank.sol\":1191:1232  KipuBank_MontoDeDepositoExcedido(balance) */\n      mload(0x40)\n      0xabdcb85700000000000000000000000000000000000000000000000000000000\n      dup2\n      mstore\n      0x04\n      add\n      tag_18\n      swap2\n      swap1\n      tag_14\n      jump\t// in\n    tag_18:\n      mload(0x40)\n      dup1\n      swap2\n      sub\n      swap1\n      revert\n        /* \"contracts/kipu-bank.sol\":1153:1232  if(_monto+balance > i_bankCap) revert KipuBank_MontoDeDepositoExcedido(balance) */\n    tag_17:\n        /* \"contracts/kipu-bank.sol\":1254:1270  i_maxTransaccion */\n      immutable(\"0xe4b1702d9298fee62dfeccc57d322a463ad55ca201256d01f62b45b2e1c21c10\")\n        /* \"contracts/kipu-bank.sol\":1245:1251  _monto */\n      dup3\n        /* \"contracts/kipu-bank.sol\":1245:1270  _monto > i_maxTransaccion */\n      gt\n        /* \"contracts/kipu-bank.sol\":1242:1337  if(_monto > i_maxTransaccion) revert KipuBank_MontoTransaccionExcedido(_monto,i_maxTransaccion) */\n      iszero\n      tag_19\n      jumpi\n        /* \"contracts/kipu-bank.sol\":1313:1319  _monto */\n      dup2\n        /* \"contracts/kipu-bank.sol\":1320:1336  i_maxTransaccion */\n      immutable(\"0xe4b1702d9298fee62dfeccc57d322a463ad55ca201256d01f62b45b2e1c21c10\")\n        /* \"contracts/kipu-bank.sol\":1279:1337  KipuBank_MontoTransaccionExcedido(_monto,i_maxTransaccion) */\n      mload(0x40)\n      0x4fdc459f00000000000000000000000000000000000000000000000000000000\n      dup2\n      mstore\n      0x04\n      add\n      tag_20\n      swap3\n      swap2\n      swap1\n      tag_21\n      jump\t// in\n    tag_20:\n      mload(0x40)\n      dup1\n      swap2\n      sub\n      swap1\n      revert\n        /* \"contracts/kipu-bank.sol\":1242:1337  if(_monto > i_maxTransaccion) revert KipuBank_MontoTransaccionExcedido(_monto,i_maxTransaccion) */\n    tag_19:\n        /* \"contracts/kipu-bank.sol\":1481:1490  msg.value */\n      callvalue\n        /* \"contracts/kipu-bank.sol\":1455:1465  s_usuarios */\n      0x00\n        /* \"contracts/kipu-bank.sol\":1455:1477  s_usuarios[msg.sender] */\n      0x00\n        /* \"contracts/kipu-bank.sol\":1466:1476  msg.sender */\n      caller\n        /* \"contracts/kipu-bank.sol\":1455:1477  s_usuarios[msg.sender] */\n      0xffffffffffffffffffffffffffffffffffffffff\n      and\n      0xffffffffffffffffffffffffffffffffffffffff\n      and\n      dup2\n      mstore\n      0x20\n      add\n      swap1\n      dup2\n      mstore\n      0x20\n      add\n      0x00\n      keccak256\n      0x00\n        /* \"contracts/kipu-bank.sol\":1455:1490  s_usuarios[msg.sender] += msg.value */\n      dup3\n      dup3\n      sload\n      tag_23\n      swap2\n      swap1\n      tag_16\n      jump\t// in\n    tag_23:\n      swap3\n      pop\n      pop\n      dup2\n      swap1\n      sstore\n      pop\n        /* \"contracts/kipu-bank.sol\":1505:1542  KipuBank_DepositoRealizado(msg.value) */\n      0x298a8f6f10a76493dedd214159d8aec053c496bf51960fe92b9c375d5216aad6\n        /* \"contracts/kipu-bank.sol\":1532:1541  msg.value */\n      callvalue\n        /* \"contracts/kipu-bank.sol\":1505:1542  KipuBank_DepositoRealizado(msg.value) */\n      mload(0x40)\n      tag_24\n      swap2\n      swap1\n      tag_14\n      jump\t// in\n    tag_24:\n      mload(0x40)\n      dup1\n      swap2\n      sub\n      swap1\n      log1\n        /* \"contracts/kipu-bank.sol\":1027:1355  {... */\n      pop\n        /* \"contracts/kipu-bank.sol\":1382:1549  function depositar()external payable validarDeposito(msg.value){... */\n      pop\n      jump\t// out\n        /* \"#utility.yul\":7:84   */\n    tag_25:\n        /* \"#utility.yul\":44:51   */\n      0x00\n        /* \"#utility.yul\":73:78   */\n      dup2\n        /* \"#utility.yul\":62:78   */\n      swap1\n      pop\n        /* \"#utility.yul\":7:84   */\n      swap2\n      swap1\n      pop\n      jump\t// out\n        /* \"#utility.yul\":90:208   */\n    tag_26:\n        /* \"#utility.yul\":177:201   */\n      tag_31\n        /* \"#utility.yul\":195:200   */\n      dup2\n        /* \"#utility.yul\":177:201   */\n      tag_25\n      jump\t// in\n    tag_31:\n        /* \"#utility.yul\":172:175   */\n      dup3\n        /* \"#utility.yul\":165:202   */\n      mstore\n        /* \"#utility.yul\":90:208   */\n      pop\n      pop\n      jump\t// out\n        /* \"#utility.yul\":214:436   */\n    tag_14:\n        /* \"#utility.yul\":307:311   */\n      0x00\n        /* \"#utility.yul\":345:347   */\n      0x20\n        /* \"#utility.yul\":334:343   */\n      dup3\n        /* \"#utility.yul\":330:348   */\n      add\n        /* \"#utility.yul\":322:348   */\n      swap1\n      pop\n        /* \"#utility.yul\":358:429   */\n      tag_33\n        /* \"#utility.yul\":426:427   */\n      0x00\n        /* \"#utility.yul\":415:424   */\n      dup4\n        /* \"#utility.yul\":411:428   */\n      add\n        /* \"#utility.yul\":402:408   */\n      dup5\n        /* \"#utility.yul\":358:429   */\n      tag_26\n      jump\t// in\n    tag_33:\n        /* \"#utility.yul\":214:436   */\n      swap3\n      swap2\n      pop\n      pop\n      jump\t// out\n        /* \"#utility.yul\":442:622   */\n    tag_27:\n        /* \"#utility.yul\":490:567   */\n      0x4e487b7100000000000000000000000000000000000000000000000000000000\n        /* \"#utility.yul\":487:488   */\n      0x00\n        /* \"#utility.yul\":480:568   */\n      mstore\n        /* \"#utility.yul\":587:591   */\n      0x11\n        /* \"#utility.yul\":584:585   */\n      0x04\n        /* \"#utility.yul\":577:592   */\n      mstore\n        /* \"#utility.yul\":611:615   */\n      0x24\n        /* \"#utility.yul\":608:609   */\n      0x00\n        /* \"#utility.yul\":601:616   */\n      revert\n        /* \"#utility.yul\":628:819   */\n    tag_16:\n        /* \"#utility.yul\":668:671   */\n      0x00\n        /* \"#utility.yul\":687:707   */\n      tag_36\n        /* \"#utility.yul\":705:706   */\n      dup3\n        /* \"#utility.yul\":687:707   */\n      tag_25\n      jump\t// in\n    tag_36:\n        /* \"#utility.yul\":682:707   */\n      swap2\n      pop\n        /* \"#utility.yul\":721:741   */\n      tag_37\n        /* \"#utility.yul\":739:740   */\n      dup4\n        /* \"#utility.yul\":721:741   */\n      tag_25\n      jump\t// in\n    tag_37:\n        /* \"#utility.yul\":716:741   */\n      swap3\n      pop\n        /* \"#utility.yul\":764:765   */\n      dup3\n        /* \"#utility.yul\":761:762   */\n      dup3\n        /* \"#utility.yul\":757:766   */\n      add\n        /* \"#utility.yul\":750:766   */\n      swap1\n      pop\n        /* \"#utility.yul\":785:788   */\n      dup1\n        /* \"#utility.yul\":782:783   */\n      dup3\n        /* \"#utility.yul\":779:789   */\n      gt\n        /* \"#utility.yul\":776:812   */\n      iszero\n      tag_38\n      jumpi\n        /* \"#utility.yul\":792:810   */\n      tag_39\n      tag_27\n      jump\t// in\n    tag_39:\n        /* \"#utility.yul\":776:812   */\n    tag_38:\n        /* \"#utility.yul\":628:819   */\n      swap3\n      swap2\n      pop\n      pop\n      jump\t// out\n        /* \"#utility.yul\":825:1157   */\n    tag_21:\n        /* \"#utility.yul\":946:950   */\n      0x00\n        /* \"#utility.yul\":984:986   */\n      0x40\n        /* \"#utility.yul\":973:982   */\n      dup3\n        /* \"#utility.yul\":969:987   */\n      add\n        /* \"#utility.yul\":961:987   */\n      swap1\n      pop\n        /* \"#utility.yul\":997:1068   */\n      tag_41\n        /* \"#utility.yul\":1065:1066   */\n      0x00\n        /* \"#utility.yul\":1054:1063   */\n      dup4\n        /* \"#utility.yul\":1050:1067   */\n      add\n        /* \"#utility.yul\":1041:1047   */\n      dup6\n        /* \"#utility.yul\":997:1068   */\n      tag_26\n      jump\t// in\n    tag_41:\n        /* \"#utility.yul\":1078:1150   */\n      tag_42\n        /* \"#utility.yul\":1146:1148   */\n      0x20\n        /* \"#utility.yul\":1135:1144   */\n      dup4\n        /* \"#utility.yul\":1131:1149   */\n      add\n        /* \"#utility.yul\":1122:1128   */\n      dup5\n        /* \"#utility.yul\":1078:1150   */\n      tag_26\n      jump\t// in\n    tag_42:\n        /* \"#utility.yul\":825:1157   */\n      swap4\n      swap3\n      pop\n      pop\n      pop\n      jump\t// out\n\n    auxdata: 0xa264697066735822122093d9ea1119d7d078bb2b5857b546e1773eb14fc308e518684e7219bbe8de96eb64736f6c634300081e0033\n}\n",
				"bytecode": {
					"linkReferences": {},
					"object": "60c06040526103e8608090815250348015610018575f5ffd5b506040516103d83803806103d8833981810160405281019061003a919061008d565b8060a081815250505f6001819055505f600281905550506100b8565b5f5ffd5b5f819050919050565b61006c8161005a565b8114610076575f5ffd5b50565b5f8151905061008781610063565b92915050565b5f602082840312156100a2576100a1610056565b5b5f6100af84828501610079565b91505092915050565b60805160a0516102fa6100de5f395f608a01525f818160fa015261012301526102fa5ff3fe608060405260043610610021575f3560e01c80633d922f901461003557610028565b3661002857005b348015610033575f5ffd5b005b61003d61003f565b005b345f4790505f821161008857816040517fa5b1639100000000000000000000000000000000000000000000000000000000815260040161007f9190610224565b60405180910390fd5b7f000000000000000000000000000000000000000000000000000000000000000081836100b5919061026a565b11156100f857806040517fabdcb8570000000000000000000000000000000000000000000000000000000081526004016100ef9190610224565b60405180910390fd5b7f000000000000000000000000000000000000000000000000000000000000000082111561017f57817f00000000000000000000000000000000000000000000000000000000000000006040517f4fdc459f00000000000000000000000000000000000000000000000000000000815260040161017692919061029d565b60405180910390fd5b345f5f3373ffffffffffffffffffffffffffffffffffffffff1673ffffffffffffffffffffffffffffffffffffffff1681526020019081526020015f205f8282546101ca919061026a565b925050819055507f298a8f6f10a76493dedd214159d8aec053c496bf51960fe92b9c375d5216aad6346040516102009190610224565b60405180910390a15050565b5f819050919050565b61021e8161020c565b82525050565b5f6020820190506102375f830184610215565b92915050565b7f4e487b71000000000000000000000000000000000000000000000000000000005f52601160045260245ffd5b5f6102748261020c565b915061027f8361020c565b92508282019050808211156102975761029661023d565b5b92915050565b5f6040820190506102b05f830185610215565b6102bd6020830184610215565b939250505056fea264697066735822122093d9ea1119d7d078bb2b5857b546e1773eb14fc308e518684e7219bbe8de96eb64736f6c634300081e0033",
					"opcodes": "PUSH1 0xC0 PUSH1 0x40 MSTORE PUSH2 0x3E8 PUSH1 0x80 SWAP1 DUP2 MSTORE POP CALLVALUE DUP1 ISZERO PUSH2 0x18 JUMPI PUSH0 PUSH0 REVERT JUMPDEST POP PUSH1 0x40 MLOAD PUSH2 0x3D8 CODESIZE SUB DUP1 PUSH2 0x3D8 DUP4 CODECOPY DUP2 DUP2 ADD PUSH1 0x40 MSTORE DUP2 ADD SWAP1 PUSH2 0x3A SWAP2 SWAP1 PUSH2 0x8D JUMP JUMPDEST DUP1 PUSH1 0xA0 DUP2 DUP2 MSTORE POP POP PUSH0 PUSH1 0x1 DUP2 SWAP1 SSTORE POP PUSH0 PUSH1 0x2 DUP2 SWAP1 SSTORE POP POP PUSH2 0xB8 JUMP JUMPDEST PUSH0 PUSH0 REVERT JUMPDEST PUSH0 DUP2 SWAP1 POP SWAP2 SWAP1 POP JUMP JUMPDEST PUSH2 0x6C DUP2 PUSH2 0x5A JUMP JUMPDEST DUP2 EQ PUSH2 0x76 JUMPI PUSH0 PUSH0 REVERT JUMPDEST POP JUMP JUMPDEST PUSH0 DUP2 MLOAD SWAP1 POP PUSH2 0x87 DUP2 PUSH2 0x63 JUMP JUMPDEST SWAP3 SWAP2 POP POP JUMP JUMPDEST PUSH0 PUSH1 0x20 DUP3 DUP5 SUB SLT ISZERO PUSH2 0xA2 JUMPI PUSH2 0xA1 PUSH2 0x56 JUMP JUMPDEST JUMPDEST PUSH0 PUSH2 0xAF DUP5 DUP3 DUP6 ADD PUSH2 0x79 JUMP JUMPDEST SWAP2 POP POP SWAP3 SWAP2 POP POP JUMP JUMPDEST PUSH1 0x80 MLOAD PUSH1 0xA0 MLOAD PUSH2 0x2FA PUSH2 0xDE PUSH0 CODECOPY PUSH0 PUSH1 0x8A ADD MSTORE PUSH0 DUP2 DUP2 PUSH1 0xFA ADD MSTORE PUSH2 0x123 ADD MSTORE PUSH2 0x2FA PUSH0 RETURN INVALID PUSH1 0x80 PUSH1 0x40 MSTORE PUSH1 0x4 CALLDATASIZE LT PUSH2 0x21 JUMPI PUSH0 CALLDATALOAD PUSH1 0xE0 SHR DUP1 PUSH4 0x3D922F90 EQ PUSH2 0x35 JUMPI PUSH2 0x28 JUMP JUMPDEST CALLDATASIZE PUSH2 0x28 JUMPI STOP JUMPDEST CALLVALUE DUP1 ISZERO PUSH2 0x33 JUMPI PUSH0 PUSH0 REVERT JUMPDEST STOP JUMPDEST PUSH2 0x3D PUSH2 0x3F JUMP JUMPDEST STOP JUMPDEST CALLVALUE PUSH0 SELFBALANCE SWAP1 POP PUSH0 DUP3 GT PUSH2 0x88 JUMPI DUP2 PUSH1 0x40 MLOAD PUSH32 0xA5B1639100000000000000000000000000000000000000000000000000000000 DUP2 MSTORE PUSH1 0x4 ADD PUSH2 0x7F SWAP2 SWAP1 PUSH2 0x224 JUMP JUMPDEST PUSH1 0x40 MLOAD DUP1 SWAP2 SUB SWAP1 REVERT JUMPDEST PUSH32 0x0 DUP2 DUP4 PUSH2 0xB5 SWAP2 SWAP1 PUSH2 0x26A JUMP JUMPDEST GT ISZERO PUSH2 0xF8 JUMPI DUP1 PUSH1 0x40 MLOAD PUSH32 0xABDCB85700000000000000000000000000000000000000000000000000000000 DUP2 MSTORE PUSH1 0x4 ADD PUSH2 0xEF SWAP2 SWAP1 PUSH2 0x224 JUMP JUMPDEST PUSH1 0x40 MLOAD DUP1 SWAP2 SUB SWAP1 REVERT JUMPDEST PUSH32 0x0 DUP3 GT ISZERO PUSH2 0x17F JUMPI DUP2 PUSH32 0x0 PUSH1 0x40 MLOAD PUSH32 0x4FDC459F00000000000000000000000000000000000000000000000000000000 DUP2 MSTORE PUSH1 0x4 ADD PUSH2 0x176 SWAP3 SWAP2 SWAP1 PUSH2 0x29D JUMP JUMPDEST PUSH1 0x40 MLOAD DUP1 SWAP2 SUB SWAP1 REVERT JUMPDEST CALLVALUE PUSH0 PUSH0 CALLER PUSH20 0xFFFFFFFFFFFFFFFFFFFFFFFFFFFFFFFFFFFFFFFF AND PUSH20 0xFFFFFFFFFFFFFFFFFFFFFFFFFFFFFFFFFFFFFFFF AND DUP2 MSTORE PUSH1 0x20 ADD SWAP1 DUP2 MSTORE PUSH1 0x20 ADD PUSH0 KECCAK256 PUSH0 DUP3 DUP3 SLOAD PUSH2 0x1CA SWAP2 SWAP1 PUSH2 0x26A JUMP JUMPDEST SWAP3 POP POP DUP2 SWAP1 SSTORE POP PUSH32 0x298A8F6F10A76493DEDD214159D8AEC053C496BF51960FE92B9C375D5216AAD6 CALLVALUE PUSH1 0x40 MLOAD PUSH2 0x200 SWAP2 SWAP1 PUSH2 0x224 JUMP JUMPDEST PUSH1 0x40 MLOAD DUP1 SWAP2 SUB SWAP1 LOG1 POP POP JUMP JUMPDEST PUSH0 DUP2 SWAP1 POP SWAP2 SWAP1 POP JUMP JUMPDEST PUSH2 0x21E DUP2 PUSH2 0x20C JUMP JUMPDEST DUP3 MSTORE POP POP JUMP JUMPDEST PUSH0 PUSH1 0x20 DUP3 ADD SWAP1 POP PUSH2 0x237 PUSH0 DUP4 ADD DUP5 PUSH2 0x215 JUMP JUMPDEST SWAP3 SWAP2 POP POP JUMP JUMPDEST PUSH32 0x4E487B7100000000000000000000000000000000000000000000000000000000 PUSH0 MSTORE PUSH1 0x11 PUSH1 0x4 MSTORE PUSH1 0x24 PUSH0 REVERT JUMPDEST PUSH0 PUSH2 0x274 DUP3 PUSH2 0x20C JUMP JUMPDEST SWAP2 POP PUSH2 0x27F DUP4 PUSH2 0x20C JUMP JUMPDEST SWAP3 POP DUP3 DUP3 ADD SWAP1 POP DUP1 DUP3 GT ISZERO PUSH2 0x297 JUMPI PUSH2 0x296 PUSH2 0x23D JUMP JUMPDEST JUMPDEST SWAP3 SWAP2 POP POP JUMP JUMPDEST PUSH0 PUSH1 0x40 DUP3 ADD SWAP1 POP PUSH2 0x2B0 PUSH0 DUP4 ADD DUP6 PUSH2 0x215 JUMP JUMPDEST PUSH2 0x2BD PUSH1 0x20 DUP4 ADD DUP5 PUSH2 0x215 JUMP JUMPDEST SWAP4 SWAP3 POP POP POP JUMP INVALID LOG2 PUSH5 0x6970667358 0x22 SLT KECCAK256 SWAP4 0xD9 0xEA GT NOT 0xD7 0xD0 PUSH25 0xBB2B5857B546E1773EB14FC308E518684E7219BBE8DE96EB64 PUSH20 0x6F6C634300081E00330000000000000000000000 "
				},
				"gasEstimates": {
					"creation": {
						"codeDepositCost": "152400",
						"executionCost": "infinite",
						"totalCost": "infinite"
					},
					"external": {
						"": "109",
						"depositar()": "infinite"
					}
				},
				"methodIdentifiers": {
					"depositar()": "3d922f90"
				}
			},
			"storageLayout": {
				"storage": [
					{
						"astId": 5,
						"contract": "contracts/kipu-bank.sol:KipuBank",
						"label": "s_usuarios",
						"offset": 0,
						"slot": "0",
						"type": "t_mapping(t_address,t_uint256)"
					},
					{
						"astId": 12,
						"contract": "contracts/kipu-bank.sol:KipuBank",
						"label": "nroDepositos",
						"offset": 0,
						"slot": "1",
						"type": "t_uint256"
					},
					{
						"astId": 14,
						"contract": "contracts/kipu-bank.sol:KipuBank",
						"label": "nroRetiros",
						"offset": 0,
						"slot": "2",
						"type": "t_uint256"
					}
				],
				"types": {
					"t_address": {
						"encoding": "inplace",
						"label": "address",
						"numberOfBytes": "20"
					},
					"t_mapping(t_address,t_uint256)": {
						"encoding": "mapping",
						"key": "t_address",
						"label": "mapping(address => uint256)",
						"numberOfBytes": "32",
						"value": "t_uint256"
					},
					"t_uint256": {
						"encoding": "inplace",
						"label": "uint256",
						"numberOfBytes": "32"
					}
				}
			},
			"userdoc": {
				"kind": "user",
				"methods": {},
				"version": 1
			}
		}
	}
}