{
	"data": {
		"bytecode": {
			"linkReferences": {},
			"object": "60c06040525f5f55600a6080908152503480156019575f5ffd5b5060805160a0516104426100415f395f609b01525f818161018001526101d901526104425ff3fe608060405234801561000f575f5ffd5b506004361061003f575f3560e01c8063d5ca622814610043578063d6f033fd1461005f578063e8b1298f1461007d575b5f5ffd5b61005d60048036038101906100589190610246565b610099565b005b61006761011c565b6040516100749190610280565b60405180910390f35b61009760048036038101906100929190610246565b610124565b005b7f0000000000000000000000000000000000000000000000000000000000000000811080156100c757505f81115b1561011857805f546100d991906102c6565b5f819055507f8130af2c452734b65c18b55f1bc823954446caeec82d000ce7a19f523cc94e3960405161010b90610353565b60405180910390a1610119565b5b50565b5f5f54905090565b61012d8161017d565b1561017a57805f5461013f9190610371565b5f819055507f57ecdbf583963c5c31d3794eb4869d9ac266c0cd5d076a95c3dee7d4ea6566f2604051610171906103ee565b60405180910390a15b50565b5f7f000000000000000000000000000000000000000000000000000000000000000082111580156101af57505f548211155b80156101ba57505f82115b156101c8576001905061020a565b5f82116101d7575f905061020a565b7f00000000000000000000000000000000000000000000000000000000000000008210610206575f905061020a565b5f90505b919050565b5f5ffd5b5f819050919050565b61022581610213565b811461022f575f5ffd5b50565b5f813590506102408161021c565b92915050565b5f6020828403121561025b5761025a61020f565b5b5f61026884828501610232565b91505092915050565b61027a81610213565b82525050565b5f6020820190506102935f830184610271565b92915050565b7f4e487b71000000000000000000000000000000000000000000000000000000005f52601160045260245ffd5b5f6102d082610213565b91506102db83610213565b92508282019050808211156102f3576102f2610299565b5b92915050565b5f82825260208201905092915050565b7f4d6f6e746f206465706f73697461646f000000000000000000000000000000005f82015250565b5f61033d6010836102f9565b915061034882610309565b602082019050919050565b5f6020820190508181035f83015261036a81610331565b9050919050565b5f61037b82610213565b915061038683610213565b925082820390508181111561039e5761039d610299565b5b92915050565b7f4d6f6e746f20726574697261646f0000000000000000000000000000000000005f82015250565b5f6103d8600e836102f9565b91506103e3826103a4565b602082019050919050565b5f6020820190508181035f830152610405816103cc565b905091905056fea2646970667358221220659c701785130835192fa42032c314d7612b89b48758ecc1c4ea25fba4bbe5b564736f6c634300081e0033",
			"opcodes": "PUSH1 0xC0 PUSH1 0x40 MSTORE PUSH0 PUSH0 SSTORE PUSH1 0xA PUSH1 0x80 SWAP1 DUP2 MSTORE POP CALLVALUE DUP1 ISZERO PUSH1 0x19 JUMPI PUSH0 PUSH0 REVERT JUMPDEST POP PUSH1 0x80 MLOAD PUSH1 0xA0 MLOAD PUSH2 0x442 PUSH2 0x41 PUSH0 CODECOPY PUSH0 PUSH1 0x9B ADD MSTORE PUSH0 DUP2 DUP2 PUSH2 0x180 ADD MSTORE PUSH2 0x1D9 ADD MSTORE PUSH2 0x442 PUSH0 RETURN INVALID PUSH1 0x80 PUSH1 0x40 MSTORE CALLVALUE DUP1 ISZERO PUSH2 0xF JUMPI PUSH0 PUSH0 REVERT JUMPDEST POP PUSH1 0x4 CALLDATASIZE LT PUSH2 0x3F JUMPI PUSH0 CALLDATALOAD PUSH1 0xE0 SHR DUP1 PUSH4 0xD5CA6228 EQ PUSH2 0x43 JUMPI DUP1 PUSH4 0xD6F033FD EQ PUSH2 0x5F JUMPI DUP1 PUSH4 0xE8B1298F EQ PUSH2 0x7D JUMPI JUMPDEST PUSH0 PUSH0 REVERT JUMPDEST PUSH2 0x5D PUSH1 0x4 DUP1 CALLDATASIZE SUB DUP2 ADD SWAP1 PUSH2 0x58 SWAP2 SWAP1 PUSH2 0x246 JUMP JUMPDEST PUSH2 0x99 JUMP JUMPDEST STOP JUMPDEST PUSH2 0x67 PUSH2 0x11C JUMP JUMPDEST PUSH1 0x40 MLOAD PUSH2 0x74 SWAP2 SWAP1 PUSH2 0x280 JUMP JUMPDEST PUSH1 0x40 MLOAD DUP1 SWAP2 SUB SWAP1 RETURN JUMPDEST PUSH2 0x97 PUSH1 0x4 DUP1 CALLDATASIZE SUB DUP2 ADD SWAP1 PUSH2 0x92 SWAP2 SWAP1 PUSH2 0x246 JUMP JUMPDEST PUSH2 0x124 JUMP JUMPDEST STOP JUMPDEST PUSH32 0x0 DUP2 LT DUP1 ISZERO PUSH2 0xC7 JUMPI POP PUSH0 DUP2 GT JUMPDEST ISZERO PUSH2 0x118 JUMPI DUP1 PUSH0 SLOAD PUSH2 0xD9 SWAP2 SWAP1 PUSH2 0x2C6 JUMP JUMPDEST PUSH0 DUP2 SWAP1 SSTORE POP PUSH32 0x8130AF2C452734B65C18B55F1BC823954446CAEEC82D000CE7A19F523CC94E39 PUSH1 0x40 MLOAD PUSH2 0x10B SWAP1 PUSH2 0x353 JUMP JUMPDEST PUSH1 0x40 MLOAD DUP1 SWAP2 SUB SWAP1 LOG1 PUSH2 0x119 JUMP JUMPDEST JUMPDEST POP JUMP JUMPDEST PUSH0 PUSH0 SLOAD SWAP1 POP SWAP1 JUMP JUMPDEST PUSH2 0x12D DUP2 PUSH2 0x17D JUMP JUMPDEST ISZERO PUSH2 0x17A JUMPI DUP1 PUSH0 SLOAD PUSH2 0x13F SWAP2 SWAP1 PUSH2 0x371 JUMP JUMPDEST PUSH0 DUP2 SWAP1 SSTORE POP PUSH32 0x57ECDBF583963C5C31D3794EB4869D9AC266C0CD5D076A95C3DEE7D4EA6566F2 PUSH1 0x40 MLOAD PUSH2 0x171 SWAP1 PUSH2 0x3EE JUMP JUMPDEST PUSH1 0x40 MLOAD DUP1 SWAP2 SUB SWAP1 LOG1 JUMPDEST POP JUMP JUMPDEST PUSH0 PUSH32 0x0 DUP3 GT ISZERO DUP1 ISZERO PUSH2 0x1AF JUMPI POP PUSH0 SLOAD DUP3 GT ISZERO JUMPDEST DUP1 ISZERO PUSH2 0x1BA JUMPI POP PUSH0 DUP3 GT JUMPDEST ISZERO PUSH2 0x1C8 JUMPI PUSH1 0x1 SWAP1 POP PUSH2 0x20A JUMP JUMPDEST PUSH0 DUP3 GT PUSH2 0x1D7 JUMPI PUSH0 SWAP1 POP PUSH2 0x20A JUMP JUMPDEST PUSH32 0x0 DUP3 LT PUSH2 0x206 JUMPI PUSH0 SWAP1 POP PUSH2 0x20A JUMP JUMPDEST PUSH0 SWAP1 POP JUMPDEST SWAP2 SWAP1 POP JUMP JUMPDEST PUSH0 PUSH0 REVERT JUMPDEST PUSH0 DUP2 SWAP1 POP SWAP2 SWAP1 POP JUMP JUMPDEST PUSH2 0x225 DUP2 PUSH2 0x213 JUMP JUMPDEST DUP2 EQ PUSH2 0x22F JUMPI PUSH0 PUSH0 REVERT JUMPDEST POP JUMP JUMPDEST PUSH0 DUP2 CALLDATALOAD SWAP1 POP PUSH2 0x240 DUP2 PUSH2 0x21C JUMP JUMPDEST SWAP3 SWAP2 POP POP JUMP JUMPDEST PUSH0 PUSH1 0x20 DUP3 DUP5 SUB SLT ISZERO PUSH2 0x25B JUMPI PUSH2 0x25A PUSH2 0x20F JUMP JUMPDEST JUMPDEST PUSH0 PUSH2 0x268 DUP5 DUP3 DUP6 ADD PUSH2 0x232 JUMP JUMPDEST SWAP2 POP POP SWAP3 SWAP2 POP POP JUMP JUMPDEST PUSH2 0x27A DUP2 PUSH2 0x213 JUMP JUMPDEST DUP3 MSTORE POP POP JUMP JUMPDEST PUSH0 PUSH1 0x20 DUP3 ADD SWAP1 POP PUSH2 0x293 PUSH0 DUP4 ADD DUP5 PUSH2 0x271 JUMP JUMPDEST SWAP3 SWAP2 POP POP JUMP JUMPDEST PUSH32 0x4E487B7100000000000000000000000000000000000000000000000000000000 PUSH0 MSTORE PUSH1 0x11 PUSH1 0x4 MSTORE PUSH1 0x24 PUSH0 REVERT JUMPDEST PUSH0 PUSH2 0x2D0 DUP3 PUSH2 0x213 JUMP JUMPDEST SWAP2 POP PUSH2 0x2DB DUP4 PUSH2 0x213 JUMP JUMPDEST SWAP3 POP DUP3 DUP3 ADD SWAP1 POP DUP1 DUP3 GT ISZERO PUSH2 0x2F3 JUMPI PUSH2 0x2F2 PUSH2 0x299 JUMP JUMPDEST JUMPDEST SWAP3 SWAP2 POP POP JUMP JUMPDEST PUSH0 DUP3 DUP3 MSTORE PUSH1 0x20 DUP3 ADD SWAP1 POP SWAP3 SWAP2 POP POP JUMP JUMPDEST PUSH32 0x4D6F6E746F206465706F73697461646F00000000000000000000000000000000 PUSH0 DUP3 ADD MSTORE POP JUMP JUMPDEST PUSH0 PUSH2 0x33D PUSH1 0x10 DUP4 PUSH2 0x2F9 JUMP JUMPDEST SWAP2 POP PUSH2 0x348 DUP3 PUSH2 0x309 JUMP JUMPDEST PUSH1 0x20 DUP3 ADD SWAP1 POP SWAP2 SWAP1 POP JUMP JUMPDEST PUSH0 PUSH1 0x20 DUP3 ADD SWAP1 POP DUP2 DUP2 SUB PUSH0 DUP4 ADD MSTORE PUSH2 0x36A DUP2 PUSH2 0x331 JUMP JUMPDEST SWAP1 POP SWAP2 SWAP1 POP JUMP JUMPDEST PUSH0 PUSH2 0x37B DUP3 PUSH2 0x213 JUMP JUMPDEST SWAP2 POP PUSH2 0x386 DUP4 PUSH2 0x213 JUMP JUMPDEST SWAP3 POP DUP3 DUP3 SUB SWAP1 POP DUP2 DUP2 GT ISZERO PUSH2 0x39E JUMPI PUSH2 0x39D PUSH2 0x299 JUMP JUMPDEST JUMPDEST SWAP3 SWAP2 POP POP JUMP JUMPDEST PUSH32 0x4D6F6E746F20726574697261646F000000000000000000000000000000000000 PUSH0 DUP3 ADD MSTORE POP JUMP JUMPDEST PUSH0 PUSH2 0x3D8 PUSH1 0xE DUP4 PUSH2 0x2F9 JUMP JUMPDEST SWAP2 POP PUSH2 0x3E3 DUP3 PUSH2 0x3A4 JUMP JUMPDEST PUSH1 0x20 DUP3 ADD SWAP1 POP SWAP2 SWAP1 POP JUMP JUMPDEST PUSH0 PUSH1 0x20 DUP3 ADD SWAP1 POP DUP2 DUP2 SUB PUSH0 DUP4 ADD MSTORE PUSH2 0x405 DUP2 PUSH2 0x3CC JUMP JUMPDEST SWAP1 POP SWAP2 SWAP1 POP JUMP INVALID LOG2 PUSH5 0x6970667358 0x22 SLT KECCAK256 PUSH6 0x9C7017851308 CALLDATALOAD NOT 0x2F LOG4 KECCAK256 ORIGIN 0xC3 EQ 0xD7 PUSH2 0x2B89 0xB4 DUP8 PC EOFCREATE 0xC1 0xC4 0xEA 0x25 EXTSTATICCALL LOG4 0xBB JUMPF 0xB564 PUSH20 0x6F6C634300081E00330000000000000000000000 "
		},
		"gasEstimates": {
			"creation": {
				"codeDepositCost": "218000",
				"executionCost": "infinite",
				"totalCost": "infinite"
			},
			"external": {
				"consultarSaldo()": "2431",
				"depositar(uint256)": "infinite",
				"retirar(uint256)": "infinite"
			},
			"internal": {
				"validarRetiro(uint256)": "infinite"
			}
		},
		"methodIdentifiers": {
			"consultarSaldo()": "d6f033fd",
			"depositar(uint256)": "d5ca6228",
			"retirar(uint256)": "e8b1298f"
		}
	},
	"abi": [
		{
			"anonymous": false,
			"inputs": [
				{
					"indexed": false,
					"internalType": "string",
					"name": "mensaje",
					"type": "string"
				}
			],
			"name": "KipuBank_montoDepositado",
			"type": "event"
		},
		{
			"anonymous": false,
			"inputs": [
				{
					"indexed": false,
					"internalType": "string",
					"name": "mensaje",
					"type": "string"
				}
			],
			"name": "KipuBank_montoRetirado",
			"type": "event"
		},
		{
			"inputs": [],
			"name": "consultarSaldo",
			"outputs": [
				{
					"internalType": "uint256",
					"name": "monto_",
					"type": "uint256"
				}
			],
			"stateMutability": "view",
			"type": "function"
		},
		{
			"inputs": [
				{
					"internalType": "uint256",
					"name": "_monto",
					"type": "uint256"
				}
			],
			"name": "depositar",
			"outputs": [],
			"stateMutability": "nonpayable",
			"type": "function"
		},
		{
			"inputs": [
				{
					"internalType": "uint256",
					"name": "_monto",
					"type": "uint256"
				}
			],
			"name": "retirar",
			"outputs": [],
			"stateMutability": "nonpayable",
			"type": "function"
		}
	]
}